:020000040800F2
:10000000E8060020890100081913000811130008F0
:10001000151300084502000839130008000000000D
:100020000000000000000000000000002113000894
:1000300055020008000000001D13000825130008E9
:10004000A3010008A3010008A3010008A301000800
:10005000A3010008A3010008A3010008A3010008F0
:10006000A3010008A3010008A3010008A3010008E0
:10007000A3010008A3010008A3010008A3010008D0
:10008000A3010008A3010008A3010008A3010008C0
:100090002D13000849020008A3010008A30100086D
:1000A000A3010008A3010008A3010008A3010008A0
:1000B000A3010008A3010008A3010008A301000890
:1000C000A3010008A3010008A3010008A301000880
:1000D000A3010008A3010008A3010008A301000870
:1000E000A3010008A3010008A301000800F002F822
:1000F00000F03AF80AA090E8000C82448344AAF188
:100100000107DA4501D100F02FF8AFF2090EBAE885
:100110000F0013F0010F18BFFB1A43F0010318473B
:10012000E413000004140000103A24BF78C878C11A
:10013000FAD8520724BF30C830C144BF04680C60ED
:10014000704700000023002400250026103A28BF35
:1001500078C1FBD8520728BF30C148BF0B60704739
:100160001FB51FBD10B510BD00F031F81146FFF7E7
:10017000F7FF01F0E3F800F04FF803B4FFF7F2FFE8
:1001800003BC00F057F800000948804709480047C1
:10019000FEE7FEE7FEE7FEE7FEE7FEE7FEE7FEE737
:1001A000FEE7FEE704480549054A064B7047000094
:1001B00029130008ED000008E8000020E8060020F0
:1001C000E8020020E802002070477047704775463B
:1001D00000F02CF8AE4605006946534620F00700B3
:1001E000854618B020B5FFF7DDFFBDE820404FF091
:1001F00000064FF000074FF000084FF0000BAC4630
:10020000ACE8C009ACE8C009ACE8C009ACE8C0097A
:1002100021F007018D46704710B50446AFF300800A
:100220002046BDE81040FFF7A8BF00000048704717
:100230001000002001491820ABBEFEE72600020096
:1002400070470000FEE7000040F2BC00C2F2000070
:1002500000F074B97047000090F82020013A012A9C
:1002600007D8006800F114020020136819431160D8
:10027000704700F1240201204FF4802113681943D4
:100280001160704710B590F820E0D0F800C0AEF1D2
:10029000010EBEF1010FDCF808E00ED81EF0E05FA1
:1002A00014D0CEF3016E012000FA0EF018608B68B6
:1002B000ABB1486843EAC00313E000F12401012018
:1002C0004FF480220B681A430A6010BD00F124012C
:1002D00001204FF400120B681A430A6010BD086831
:1002E0004305D1E9030403430CEB0E10C0F8803141
:1002F000C0F88441097D012905D100F5C2710B6860
:1003000043F480730B605168C0F88C11126800F5DB
:10031000C071C0F88821002001220B681A430A60CE
:1003200010BD0000B0B5026890F82030013B012BF1
:1003300027D8D2F80002012340F00100C2F80002E1
:10034000D1F814E0CC690EF01F0003FA00F0D2F8E7
:100350001C326FEA000C8343012CC2F81C3216D009
:1003600064BBD2F80C3203EA0C03C2F80C32CB683F
:100370008C8844EA034302EBCE04C4F840320B46B7
:1003800014E0416A41F4802141620120B0BDD2F8FD
:100390000C320343C2F80C320B688C8844EA0343E6
:1003A00002EBCE04C4F8403201F10C038C681B88C8
:1003B00043EA044302EBCE04C4F84432D2F80432D8
:1003C0008D6943EA0004D1F810E0096A002D08BFE6
:1003D00003EA0C04C2F80442D2F81432BEF1000F52
:1003E00043EA000408BF03EA0C040129C2F81442DE
:1003F00004D1D2F81C120843C2F81C02D2F8000241
:1004000020F00100C2F800020020B0BD70470000DB
:1004100010B590F82040013C012C78D8D0F800C0ED
:1004200000297DD0DCF81040A4077DD00CEB011C26
:10043000DCF8B0410CF5D87E14F004049460DCF8CC
:10044000B04119BFE4085460640D1460DEF8004048
:100450000CF5DA7E04F00204D460DCF8B441240721
:100460005ABFDEF8004004F00F0408241461DEF8DF
:1004700000400029C4F307249461DEF800404FEAED
:1004800014445461DCF8B8211A70026802EB0112BE
:10049000D2F8B8214FEA12225A70026802EB011218
:1004A000D2F8B8214FEA12429A70026802EB0112A8
:1004B000D2F8B8214FEA1262DA70026802EB011238
:1004C000D2F8BC211A71026802EB0112D2F8BC21E9
:1004D0004FEA12225A71026802EB0112D2F8BC21D3
:1004E0004FEA12429A71026802EB0112D2F8BC2163
:1004F0004FEA1262DA71006814BF00F1100100F1D6
:100500000C01002020220B681A430A6010BD00F184
:10051000240101204FF480220B681A430A6010BDA9
:10052000DCF80C40A40781D100F1240101204FF434
:1005300000120B681A430A6010BD00002DE9F04F4D
:1005400081B0044600684669D0F804908768D0F806
:100550000CB0D0F810A0D0F81880F10703D1002516
:1005600030071CD423E0F90710D00121BA078160BD
:1005700009D4780700F1AA80380700F1B08020463E
:1005800000F016FA02E0204600F014FA0025F80503
:1005900000F18480F80300F1AA80300707D51BF032
:1005A000100004D0206845F400751021C160700768
:1005B00008D51BF0080005D020680821C16020463E
:1005C00000F0AEF9B00706D52068C068800702D0F9
:1005D000204600F0A7F9700607D51AF0100004D0E5
:1005E000206845F4806510210161B00608D51AF035
:1005F000080005D0206808210161204600F094F928
:10060000F00606D520680069800702D0204600F079
:100610008DF9B00308D519F0100005D0206810211D
:100620004160204600F094F9F00308D519F0080065
:1006300005D0206808214160204600F0C5F930044B
:1006400040F18F805FEA497040F1888006F4807045
:1006500008EA102028435FEA8871014648BF41F04C
:100660000201B20558BF01465FEA48700D4648BF17
:1006700045F00405700558BF0D4630056ED518F0DD
:1006800070006BD010380009052862D8DFE800F050
:10069000035356595C5F45F008055AE020684FF453
:1006A0008071BA0581600AD4780512D4380519D44E
:1006B000204600F081F9F8037FF56FAF17E0204680
:1006C00000F07CF9F8037FF568AF10E04FF40065A7
:1006D0005DE705F50055F8037FF55FAF07E04FF4E0
:1006E000805554E705F58045F8037FF556AF20683F
:1006F0004FF48031BA0381600AD478030FD43803F1
:1007000013D4204600F05CF930073FF548AF4EE7C0
:10071000204600F057F930073FF541AF47E705F5B0
:10072000004530073FF53BAF41E705F58035300721
:100730003FF535AF3BE745F010050AE045F02005F1
:1007400007E045F0400504E045F0800501E045F490
:1007500080752068816921F0700181612068042121
:1007600041604DB1606A40EA05012046616201B016
:10077000BDE8F04FFFF74ABE01B0BDE8F08F0000C2
:10078000B0B5C8B1044690F8200010B9204600F07A
:1007900077F82068016841F00101016000F040FA3B
:1007A000054600BF20684168C90707D100F038FA44
:1007B000401B0B28F6D312E00120B0BD016821F0E8
:1007C0000201016000F02CFA054600BF2068416874
:1007D00089070DD500F024FA401B0B28F6D3606A78
:1007E000052140F400306062012084F82010B0BD83
:1007F000217E0268012922F0800308BF42F08003B5
:100800000360617E0268012922F0400308BF42F0C4
:1008100040030360A17E0268012922F0200308BF83
:1008200042F020030360E17E0268012942F01003D8
:1008300008BF22F010030360217F0268012922F023
:10084000080308BF42F008030360617F02680129C2
:1008500022F0040308BF42F004030360D4E901C29C
:10086000D4E9033561691A432A431143ACF101020B
:100870001143C16100200121606284F82010B0BDE5
:10088000B0B586B0002140F600040591CDE9031112
:10089000C4F201040068A4F524429042029101D000
:1008A00006B0B0BD41F21800C4F20200426802ADC9
:1008B00042F000724260426802F000720192019AB6
:1008C000026842F004020260006800F00400019037
:1008D00001984FF40060CDE90201049120462946B9
:1008E00000F088F84FF4805002900220039003201B
:1008F00005902046294600F07DF8142000210022B2
:1009000000F00CFA142000F0F9F915200021002263
:1009100000F004FA152000F0F1F906B0B0BD0000B7
:10092000704700007047000070470000B0B540F20B
:100930007004C2F2000404F1300204F10803012142
:100940000125FFF765FD206C022808BF2560B0BDBA
:1009500070470000B0B5044690F8200001281DD172
:10096000022084F820002068016821F00101016064
:1009700000F056F9054600BF20684068C00713D054
:1009800000F04EF9401B0B28F6D3606A40F40030AB
:100990006062052084F820000120B0BD606A40F448
:1009A000002060620120B0BD00206062B0BD000088
:1009B000704700007047000070470000704700005B
:1009C000704700007047000070470000B0B5044653
:1009D00000F026F9054640F20000C2F2000000785F
:1009E000611C18BF044400BF00F01AF9401BA0426C
:1009F000FAD3B0BD2DE9F04F82B00E68002E00F0A2
:100A0000FD8040F20C4C41F200424FF6FF7BC4F2F5
:100A1000010CC4F20102042300240127C1F2100BCF
:100A20004FF0000A4FF000094FF00F0E904208BF40
:100A3000032300933EE00123BB402B4342F82B30BD
:100A4000D1F804B040F20047C4F201075FEACB22BC
:100A5000BA6854BF22EA080242EA0802BA60DCF827
:100A600000205FEA8B2354BF22EA080242EA080210
:100A7000CCF800207A685FEA8B3354BF22EA080280
:100A800042EA08027A605FEACB333A684FF6FF7BAE
:100A900054BF22EA080242EA08023A600127C1F282
:100AA000100B0E680AF1010A36FA0AF204F1040486
:100AB00000F0A48007FA0AF816EA080FF1D04A6895
:100AC0005A4511DC122A51D8DFE802F0340A4246B6
:100AD00050505050505050505050505050494D0070
:100AE000D1F80C9042E000BF4FF6FF73C1F2210332
:100AF0009A420FDC0023C1F211039A421AD000235C
:100B0000C1F212039A4215D00023C1F221039A4286
:100B100010D02BE00023C1F222039A420AD0002316
:100B2000C1F231039A4205D00023C1F232039A4246
:100B30001CD100BF8A6842B1012A14BFC0F81480DA
:100B4000C0F810804FF0080910E04FF004090DE0E4
:100B5000CA6802F1080909E04FF0000906E0CA6816
:100B600002F1040902E0CA6802F10C0922460346B8
:100B7000BAF1080F24BF203A04331D680EFA02F6BA
:100B8000B54309FA02F22A431A60CA79D2067FF500
:100B900088AF41F21803C4F202031A684FEA9A0BB5
:100BA00042F001021A601A6804F00C0702F0010218
:100BB0000192019A40F20042C4F20102A2F57E7253
:100BC00052F82B3040F600060EFA07F5C4F2010683
:100BD000B04223EA05050FD040F60043C4F20103FA
:100BE00098423FF428AF41F20003C4F20103984257
:100BF000009B08BF02231FE700231DE702B0BDE8EA
:100C0000F08F0000C26802EA0103914341EA034108
:100C100001617047002A08BF0904016170470000A4
:100C200040F2E400C2F200000068704740F20000A9
:100C300040F2E401C2F20000C2F2000100780A684A
:100C4000104408607047000080B542F20000C4F212
:100C50000200016841F010010160032000F08AF8F1
:100C60000F2000F005F800F027F8002080BD0000FC
:100C700070B540F20006C2F2000640F20801327878
:100C8000C2F200014FF47A730968B3FBF2F2044632
:100C9000B1FBF2F1084600F025FB0F2C4FF00105E7
:100CA00008D838B94FF0FF3021460022002500F067
:100CB00035F87460284670BD82B041F21800C4F265
:100CC00002000168022241F001010160016801F0A7
:100CD000010101910199416841F0805141604068F2
:100CE00000F08050009000980420C4F201000168D8
:100CF00062F31A61016002B070470000002848BF2B
:100D0000704700F01F01012202FA01F14EF20012B9
:100D10004009CEF2000242F82010704710B54EF69E
:100D20000C5CCEF2000CDCF80030C3F3022E8EF027
:100D30000704042C28BF0424BEF103034FF0FF3E38
:100D40000EFA04F438BF0023A14399400EFA03F3CE
:100D50009A4300F00F03043B1143634409010C3331
:100D600000F16042B0F1FF3FC8BF02F56443197063
:100D700010BD00004EF60C51CEF200010A684FF68D
:100D8000FF031A4060F30A2242F0806040F0FD70D9
:100D9000086070472DE9F04381B0002800F083809F
:100DA00042F20008C4F202080446D8F800000D46DA
:100DB00000F0070088420CD2D8F8000020F00700AD
:100DC0002843C8F80000D8F8000000F00700A84247
:100DD00069D1206841F204098107C4F2020917D5DC
:100DE000410705D5D9F8001041F4E061C9F80010B9
:100DF000010705D5D9F8001041F46051C9F8001079
:100E0000D9F80010A26821F0F0011143C9F80010D0
:100E1000C00741D1D8F8000000F00700A8420CD963
:100E2000D8F8000020F007002843C8F80000D8F8E0
:100E3000000000F00700A84235D12068410707D51F
:100E4000D9F80010E26821F4E0611143C9F80010FC
:100E5000000708D5D9F80000216920F4605040EA65
:100E6000C100C9F80000D9F8002002F00C000828E1
:100E700041F20020C0F27A004BD141F2F443C2F3B8
:100E80008341C0F60003595CD20336D440F600100B
:100E9000C0F23D0048433CE06068012807D159F8A2
:100EA000041C89030CD4012001B0BDE8F08359F87B
:100EB000041C022802D18901F5D501E08907F2D589
:100EC000D9F8001021F003010843C9F80000FFF72A
:100ED000A7FE064641F28837D9F80000616800F0A5
:100EE0000C00B0EB810F95D0FFF79AFE801BB84243
:100EF000F2D9032001B0BDE8F083D9F8002041F217
:100F0000F243C2F34042C0F600039A5C4843B0FB90
:100F1000F2F0D9F8001041F2E242C1F30311C0F639
:100F20000002515C40F2080220FA01F140F2040094
:100F3000C2F200000068C2F200021160FFF798FEE2
:100F4000002001B0BDE8F0832DE9F04182B0002817
:100F500067D00446007841F20006C007C4F20206DA
:100F600024D0706800F00C0004281AD0706800F0DB
:100F70000C00082802D17068C00312D460680028F1
:100F800000F04181B0F5803F07D03168B0F5A02F67
:100F900040F06E8141F480203060306840F4803051
:100FA0006CE13068800301D56068D0B32078800799
:100FB00018D5706810F00C0F07D0706800F00C00A6
:100FC000082856D17068C00353D43068800702D512
:100FD0002069012825D13068616920F0F80040EAD5
:100FE000C1003060207800071FD42078400731D43A
:100FF000E56995B1706800F00C00082840F08B801E
:10100000012D0ED07068216A00F480328A4208D126
:10101000616A00F47010884203D1002002B0BDE87C
:10102000F081012002B0BDE8F081A069B8B30020D2
:10103000C4F242200121C0F88014FFF7F1FD0546FB
:10104000706A800700F18A80FFF7EAFD401B0228E2
:10105000F6D920E1F069C00033D4F0694FF00108FF
:1010600040F08050F061F06900F0805000900098EE
:1010700029E02069002840F20000C4F2422000F07C
:10108000978001210160FFF7CBFD0546306880079E
:10109000A1D4FFF7C5FD401B0228F7D9FBE00020D3
:1010A000C4F242200021C0F88014FFF7B9FD0546C4
:1010B000706A800799D5FFF7B3FD401B0228F7D966
:1010C000E9E04FF0000847F20007C4F20007386873
:1010D000C00510D4386840F480703860FFF7A0FD78
:1010E000054600BF3868C00505D4FFF799FD401BD1
:1010F0006428F7D9CFE0E06800286BD0012806D03B
:10110000316A052840F0968041F004003062306A70
:1011100040F0010094E00027C4F242270020386626
:10112000FFF77EFD022D05460CD100BF306880011F
:1011300040F1B580FFF774FD401B02284FF003001B
:10114000F4D96BE7306880017FF567AFFFF768FD82
:10115000401B02284FF00300F4D95FE740F208007B
:10116000C2F20000006844F6D351C1F26201A0FB54
:101170000101480A019000BF00BF0198411E0028EC
:1011800001913FF432AF00BF0198411E0028019148
:101190003FF42BAF00BF0198411E002801913FF49E
:1011A00024AF00BF0198411E00280191E4D11CE743
:1011B00000210160FFF734FD054600BF306880075D
:1011C0007FF510AFFFF72CFD401B02284FF0030006
:1011D000F4D923E7306A20F001003062306A20F051
:1011E00004003062FFF71CFD054641F2883700BF5E
:1011F000306A800733D5FFF713FD401BB8424FF02C
:101200000300F5D90AE7306820F480303060306898
:1012100020F480203060FFF703FD0546306880032E
:101220007FF5C4AEFFF7FCFC401B64284FF00300C1
:10123000F4D9F3E621F001003062306A20F00400B6
:101240003062FFF7EDFC054641F28837306A8007CF
:1012500005D4FFF7E5FC401BB842F7D91BE0B8F115
:10126000000F3FF4C5AEF06920F08050F061BFE69A
:1012700021F480303060306820F480203060FFF747
:10128000CFFC0546306880033FF590AEFFF7C8FC01
:10129000401B6428F6D9032002B0BDE8F081206A23
:1012A000B0F5803F05D17168A26821F40031114387
:1012B00071607168626A21F47411104308437060B0
:1012C00001203866FFF7ACFC044600BF306880019F
:1012D0003FF5A3AEFFF7A4FC001B02284FF003006C
:1012E000F4D99BE6411E0020B0EB116F1CBF01201A
:1012F00070474EF21002CEF2000251604EF62351BA
:10130000CEF20001F0230B7007219060116070474E
:10131000FEE70000FEE70000FEE700007047000067
:1013200070470000FFF782BC7047000040F2BC002D
:10133000C2F20000FFF702B9FEE7000090B0FFF72D
:1013400083FC002401204FF48031CDE90B44CDE92A
:1013500009440690CDE907140A9002254FF4E010E5
:10136000CDE90D510F9006A80594CDE90344CDE9D0
:101370000144FFF7E9FD20B1EFF3108072B600BF22
:10138000FEE70F20CDE901054FF480600394CDE91D
:10139000040401A80221FFF7FDFC20B1EFF3108047
:1013A00072B600BFFEE741F21800C4F20200016805
:1013B00041F2000441F0100101600168C4F201042F
:1013C00001F01001069106990168002241F0200108
:1013D000016001684FF4005501F020010691069963
:1013E00001684FF0000941F00401016000684FF40A
:1013F000005100F00400069006982046FFF70AFC12
:10140000069501254FF0020806A92046CDE90759A7
:10141000CDF82480FFF7EEFA40F27007C2F2000721
:10142000A4F52C41384640F84C1F12214FF480326D
:10143000C0E90119C0E90392C0E90599A0F81C9020
:10144000FFF79EF918B1EFF3108072B6FEE70A209D
:101450000E95CDE90A5048F2E000CDE90609CDE944
:101460000809CDE90C9507F14C0506A92846CDF8E9
:101470003C90FEF757FF2846FFF76CFA28461021EC
:10148000FEF7EAFE40F20310C7E90899B86141F29D
:10149000C84007F11805C7F82880388209E000BF66
:1014A000384640F84C9B07F110023B1D2946FEF7D9
:1014B000E9FE4FF47A70FFF789FA38680028F8D00F
:1014C000787A0028ECD0002620464FF40051FFF730
:1014D00099FB387AFFF77AFA787A01368642F3D3A5
:1014E000DEE7000000000000000001020304060720
:1014F0000809010202030405060708090A0B0C0D7E
:101500000E0F101028150008000000201000000029
:10151000280100083815000810000020D806000037
:10152000440100080000000001000000100000005D
:0815300000127A000000000027
:04000005080000ED02
:00000001FF
